:400000000040002011000000A1020000A102000010B502F009F800F063F9C04670B51A4C12232360182001F077FFB0221201174B1A60174B174A1A60FE210902164A116024
:40004000164A1A6080214901154A1160154A1A600025154B1D604122144B1A60013A144B1A600232134B1A6013490D2001F0C2FE0D2001F09FFE114B1D60002001F0DCFFFA
:400080001123236070BDC04630001040040301400000014041FF00800003014040FF00800803014042FF0080280003402C010140140101400C010140CD2000000C022240A3
:4000C00010B572B6EE221202154B1A6080221201144B1A609022144B1A60103A134B1A60D8221201124B1A600223124A13600421114A11607D31FF31104A116037221049B6
:400100000A6010490A60104A136030210F4A11600F4A1360FFF782FF00F0AEF810BDC046000302400005024000070240180204400803044018040440000504400805044082
:40014000000604401806044000070440080704401807044010B5064C2378002B07D1054B002B02D0044800E000BF0123237010BD3801002000000000E4300000084B10B5DC
:40018000002B03D00749084800E000BF07480368002B00D110BD064B002BFBD09847F9E7000000003C010020E4300000B00000200000000010B584B062B600F0E9F800F066
:4001C000BFFC01F083FD01F09BFC1A4801F00EFD194C00F077FC0028FBD1FA20800001F021FD00F0F9F8002000F07CFA80B2124B984215D0844213D0002000F073FA84B277
:400200000004000C83001818C200FA239B009C4662440A4901A802F041FB01A801F0E6FC00F084FA00F08CFCFA20000101F0FAFCCFE7C046E8300000FFFF0000F830000071
:400240000B4B1B68002803D080221206134301E05B005B08064A1360064B1B68002802D02022134301E020229343024A1360704780033A402800034010B50323054A13604E
:40028000054A13602022054B1A600120FFF7D8FF10BDC0460021024030003040000E3F4010B502F0BDFA03680C2B00D1FEE7FEE710B50300084A1068C318084A9A1A802A57
:4002C00002DC054A136005E002F0AAFA0C2303600120404210BDC046B40000206802002070B50F4E0F4D13E029686B68AC68002202E001C901C30432A242FAD1E86800224B
:4003000002E0002102C304328242FAD11035013E002EE9D102F08AFAFFF74CFFFEE7C04601000000A432000010B500230AE0032B03D89A000849505800E008489900084AC2
:40034000885001332B2BF2D9FFF7BAFE80229205044B1A6010BDC04600000000A10200000000002008ED00E010B5084B1B78002B06D100F07BF900F0CFF90122034B1A7071
:4003800000F04CF800F0FCFD10BDC0465401002070B5FFF7E9FF051E02D100F033FD0500002D02D100F0CCFB0500002D02D00BE0013C00E0074C00F085FB002801D0002C0F
:4003C000F6D1002C00D1102500F0BAFA00F07EFA280070BD404B4C0070B50E4E0025002413E0630904339B000B4A9B581F222240D340DB0707D5300000F06EF80500310059
:40040000200000F005F92C360134002CE9D0280070BDC04608310000E401002030B5002309E018491A1D92008818002444600120404250500133002BF3D0134A01231DE033
:400440005568937E0F48401800240476023BDBB2012B11D81369002B01D0E87918705468002307E0180008304000201801256D4285800133002BF5D02C320B00591E002B8A
:40048000DED130BDE40100200831000010B582B0040008001300628869460A80628A01F0D5FF6B461B8863806B469B7823716B46DB7863716B461B79A37102B010BDC04633
:4004C00030B50B884A889C1A0025CD800079844200DDCC8030BDC046F0B5574680B482B0824684684568837E0193476A00260023009316E0698A20883A0001F0D4FF320043
:4005000039002800FFF7C2FF0C37019A2100280000F024FA009021002800FFF7D1FF0A34013653461B8B9E42E4D3009802B004BC9246F0BDF0B5474680B482B084460F0084
:400540000B8B8A684D6809698846002803D16888A979401802E06988A879081A0024012109E0D388984201D3002300E00B001C430A32490033005E1E002BF2D1002C0CD0B3
:4005800043461B78002B02D0013B4246137043461B78002B04D0644602E0EB7942461370002C0AD06B88AA799A1A3E8B3100B86801F0E2F9002802D123E0002021E0BB7EB7
:4005C000022B1ED1396A0023320001A801F040FA00220BE0530002A98C466344043B1988130008335B00EB18998001329042F1D807E0030008335B00EB18012252429A80C8
:4006000001300028F5D0200002B004BC9046F0BD70B504008B7E144A1218157E023BDBB2012B04D82800FFF785FF050002E0002001F0DEFB0C4B1B191D7663091F221440D6
:400640001E3AA240002D07D104339B000649CB1859689143596006E004339B000249CB1859680A435A6070BDE401002070B5194C78220021200002F008F9174B23809023F9
:400680001B016380154BA3800823638303226F33E254763B2377124D20001E3029003431133202F0E9F82A002C00083401230CE0A168238B04E013784B7201320A310300F6
:4006C000581E002BF7D12C342B005D1E002BEFD170BDC046E4010020C4F0FFFFB80B00000031000000280FD12C234343084AD31822331B78023BDBB2012B07D82C23584301
:400700001018C368988A02E0024800E00148704700310000FFFF00000023024AD380024A13607047E4010020A401002070B5002500263E4B1B68032B06D101F022FD012253
:400740003B4BDA8001F021FD394BDC88E4B2062C23D8A300374AD3589F460122334B1A6001261AE00022314B1A60012615E0FFF70FFE00222D4B1A60012501260DE00222C6
:400780002A4B1A60012608E00022284B1A60012603E00322254B1A600026002E0FD001F0F0FC234BDB88DBB29C4205D1204AD188214B0B439BB2D38001F0E7FC00261B4B74
:4007C0001B68012BB5D0022B2DD1194A6E33D35CDBB27121525CD2B2002B24D14539594316484118098B8A421DD21149088980B27224095B89B2884215D02C214B430F49A2
:40080000CB189C6893009A185300E41801F0B9FC074B1A8992B272215A52228892B202315A5201F0B2FC280070BDC046A4010020E4010020F43100000080FFFF08310000B2
:40084000FF231940062902D08318002119715300195AC31859808218002313727047C04670B506000D00012305E0220029003000FFF7E6FF23005C1E002BF6D170BDC046E4
:4008800010B52C235843064B1B188A00511848009A6894466044997EFFF7E2FF10BDC0460831000070B505002C234343064AD3181B8B04E021002800FFF7E2FF23005C1ECF
:4008C000002BF7D170BDC0460831000010B5012303E02000FFF7E6FF23005C1E002BF8D110BDC046F8B505002C2343430D4AD3185E681B8B11E02C236B430A4AD3189F6805
:40090000A20012195000596A63001B199A008A18718A385A01F0BBFD23005C1E002BEAD1F8BDC0460831000010B5012303E02000FFF7D8FF23005C1E002BF8D110BDC0463A
:4009400010B5FFF7F1FF10BD9840504380235B009A1A51434018000A7047C046F0B5474680B482B007000E00019201233EE06300985BF3185988884205D3431A32190025FC
:400980001572012201E00B1A0022002A11D17D79AB420ED933191B7A3A7A934205D3220001993000FFF74CFF1FE03219013313721BE03D79AB4204D97D79AB4215D8002AA8
:4009C00013D1FF23019A1340062B0ED00902331998461B79194308230122FFF7B5FF020A6300F3185A804346187123005C1E002BBDD1002002B004BC9046F0BD70B50400DD
:400A00000D009F2808D91B4B994205D91A49280001F016FE002921D09F2C09D9FF235B009D4205D91549280001F00AFE002917D09F2C07D97E2D05D97F21280001F000FED7
:400A400000290FD09F2C0FD93E2D0FD93F21280001F0F6FD00290BD000200AE0042008E0032006E0022004E0002002E0002000E0012070BDFE030000FF030000FF01000080
:400A800010B54B1EDBB2032B01D8102300E00023002911D0002B11D0642253430100180001F048FD002301E0013340000928FBD90A2804D9013B02E0002300E00023D8B263
:400AC00010BDC046024BDB68802018407047C046E401002010B50E4BDB68DB030DD400280DD1430904339B00094A9B581F220240D340DB0705D4012404E0112402E00124B9
:400B000000E00024002C01D100F0E8FD200010BDE401002010B5084BDB68DB0307D4074B1B78012B05D100F031FD002003E0112001E00120404210BDE4010020A801002080
:400B400010B50C4BDB681B0612D40024012040420BE02000FFF7BEFF002805D10022064B5A70FFF7D7FF04E00134002CF1D000E0112010BDE4010020A8010020F8B54F468F
:400B80004646C0B401280BD0022804D0002399460633984607E0052399460023984602E0002399469846144C00251FE001F0E9FA2268136821698B43136066683268A77EB4
:400BC0000721B9408A434146B9400A433260227E494691400B4322681360A268136861698B43136001F0D1FA1C340135052DDDD90CBC90469946F8BD4C3100007047C04637
:400C0000074A084B1A6001380002074B1860054B1B68002BFBDB054A024B1A607047C04640000040000001400003014040FF00802C235843024B1818436898897047C04636
:400C4000083100000203121A01238B40013B9A4205D90202101A834203D3052002E0062000E00020C0B2704770B50E00FFF7E0FF05003188002200F0A3FB01002800FFF771
:400C8000BDFE041E04D168003188FFF7DBFF040021002800FFF7F4FE0001C0B22043B07370BDC046F0B5474680B488B005002C2343434A4AD3185C689F68494B197F4948B1
:400CC00001F038FC8046FA20800043465843464901F030FCFA231B01984200D81800434B9C466044FA21890001F024FC0600C30700D5013601AB4246DA82FA2292001A821D
:400D00003B4A5A82228A9A822200123204920C2323803849404601F00DFCA0810023A3735521280000F0EEFD002100239C46002207E07B7A994202D239888C4619000A3728
:400D400001322C236B432548C318DB7E9A42F0D3637A01AFBB76F976A37ADB00264AD3185B6802930C239846A04443460393FA239B0060465843214901F0DCFB38833800FD
:400D800001F0F6FA019001E05B00A381A3899E42FAD81B4B984201D8002600E006265521280000F0AFFDA37ADB00134AD3185B6801A84360637A83764346836001F008FB79
:400DC000208021002800FFF74FFF5521280000F099FD304308B004BC9046F0BD08310000E4010020C05D000070170000E7030000E5070000DC05000010320000FF0F00004B
:400E0000880D010070B50024002504E02000FFF749FF05430134002CF8D0280070BDC04610B5002408E02C236343054AD31859682000FFF719FF0134002CF4D010BDC046B9
:400E400008310000F0B55F4656464D464446F0B483B00190284C2368F0273B400093274D2B680221894619408846254E336838218B4619408A4601F084F92368BB432360AF
:400E800001F083F901F07DF92B6849468B432B6001F07BF901F075F9336859468B4330221343336001F071F96B46988801F0A0F801F067F9336859468B4351460B43336056
:400EC00001F063F901F05DF92B6849468B4341460B432B6001F059F901F053F92368BB43009A1343236001F050F903B03CBC90469946A246AB46F0BD0004024000040440E4
:400F00000804044070B505000E00140001F039F92B685C4034405C402C6001F036F970BD10B5064A136801218B4313600022EF310348FFF7E7FF00F0BFFB10BDA8022940F4
:400F40000004024010B504000C4B1B78834214D0012B01D1FFF7E4FF012C05D100F064F90122064B1A7008E0022C06D0042C04D0032C02D00022014B1A7010BDA80100202B
:400F800010B5FFF74DFF0020FFF7F8FD00217723044AD1540020FFF7D5FF0120FFF7D2FF002010BDE401002001390843014B18607047C0460002294010B50F4B1B68702288
:400FC00093431C000D4B197F0D4801F0B3FA0D4B984204D820232343074A13600BE0084B984204D830232343034A136003E040232343014A136010BDB8000020E401002020
:4010000000366E01001BB700034A044B1A60C5225204034B1A60704700008F01C0012940C4012940F0B5474680B482B005002C234343224AD3185A689C68138801279F404E
:40104000013F0A2902D908000A3800E000200A23984688444346642B01D9642398467843642101F067FA060040467843642101F061FA020000270023019313E04B00185B6F
:40108000864208D80B00824201D207E00123591E002BF3D104E00623019301E0062301930A3401372C236B430449CB181B8B9F42ECD3019802B004BC9046F0BD0831000086
:4010C000F8B54F464646C0B4070046688468B57AA84601237F200022914608E0B3185B7A994500D29946984200D9180013005A1E002BF3D100210CE0A3185B7A984200D988
:401100001800130000E001235A1E002BF4D10A3401313B8B9942F6D34346002B13D0132813D80D49EA008A1850686B1EDB00CB18596801F0FFF94F4647437E2F07D8013D0D
:40114000B572012004E0002002E0002000E000200CBC90469946F8BD10320000F0B55F4656464D46E0B482B007008A4643689B461B8801229A401300013B019301234AE03A
:401180005B465B195B7A9946BB686A00D05A4C46002208E05919497A8C4202D96800C05A0C000A330132F97E8A42F3D364235843019901F0BFF964306043514601F0BAF957
:4011C000814500D381465B465B194A465A72BC6800261CE06B00185B64235843019901F0A9F9643063195B7A584353464A465343984203D2631900225A7206E0C01A323031
:40120000642101F097F9631958720A340136FB7E9E42DFD32B005D1E002BB1D102B01CBC91469A46A346F0BDF8B5324B77229A5C7621585C824206D0FFF7A0FC2D4B762278
:40124000995C013299540120FFF7FCFDC0221203294B1A60294D2B68294E33432B600024284B1C60284B1C60284B1C60284B1C60284B1C60284B1C60284B1C60284F3C6023
:40128000284B1C606022F0212748FFF73BFE002202212648FFF736FE254A1368802149010B43136080225200224B1A602B6833432B6080235B04204A13602049204A116009
:4012C000204A14603B60FFF79FFE0A4B187FFFF797FCFFF771FE1C4B1B681C4A13431C4A13600F221B4B1A601B4B1C60053A1B4B1A60F8BDE401002004022940A80229403B
:4013000001000010F4002940B4022940C0022940200329408401294088022940800229408402294080012940000402400004044094022940A0022940A402294041120000CA
:401340008801294090022940B8000020001000800000294000032940F001294010032940F8B50700837ADB000F4A9D5800F009FF0E4B1A680E4C22400E490E78BF19797A5C
:401380000A432A431A6000F000FF00F0FAFE0A490B682340094A12689619727A13432B430B6000F0F2FEF8BD10320000C001294080FF3FFC48320000C40129405C02002081
:4013C00010B50300140001208840102900D11D38002B02D0190001F0ADF8053C012C00D84008002800D1013010BDC04610B50D4B1B782C2253430C4AD3185B6899899B7BC2
:4014000018045A1F012A02D8802292041043053BDBB2012B02D8490800D10131FFF7C4FD10BDC046AB0100200831000010B50300808919889A7BFFF7C3FF0004000C014B36
:40144000186010BD1403294010B5102000F0BCFC01222C4B1A6000232B490B602B490B602B490B6006202B490860FA302A4908602A490A6083214900294A1160294A13609B
:401480000322294B1A60F02300E0013B244A1268520701D4002BF8D1002B02D10822224B1A60832252001E4B1A60102000F096FC102000F07FFC0023174A1360134A1360E3
:4014C000134A1360134A13605021144A11604F390D4A11600B4A1360144A1368802149040B43136002220F4B1A60F02300E0013B0F4A1268520701D0002BF8D10D4A0A4BA8
:401500001A6010BD800129408C012940B0022940B40229408802294080022940F0012940F0002940F80029404003294000022940000029400103000010B5054AD368054937
:401540000B43D3600A2000F053FDFFF77DFF10BDE40100208000010070B50400857E067E00F00FFE23681B680F22B24093431A000423B3401343666832680721A9408A4337
:4015800032602268136000F000FE70BDF0B5474680B4204B1B782C2253431F4AD3185B6898461E4B77229A5C7621585C824206D0FFF7E4FA194B7622995C01329954184C1E
:4015C00000232370134F3B78134D2C267343EB1899682378DBB29A00D3185A008A18114B1A604046FFF7BCFE3B785E4370592278D2B2D3009A1A9300C0180B4B1860FFF70E
:40160000ABFF0A4800F098FBFFF796FF04BC9046F0BDC046AB01002008310000E4010020AA0100205C02002060020020BD22000010B52C235843054BC058CB00591A8B00C3
:40164000C018034B1860FFF787FF10BD0831000060020020F8B50400067E857E00F091FD636819680723AB40994327683B680F22B24093433B6077220E4FBA5C002A05D103
:401680000623AB4019436368196008E0022A06D10332B24013436268116022681360A1680B68647E0122A24093430B6000F06DFDF8BDC046E401002010B5064B1B78012B43
:4016C00006D1054B1868FFF7C5FF0022014B1A7010BDC046AC01002060020020F8B5114E2C273B004343F3185D68C0B20E4C20700120FFF727FCFFF7DFFF23787B439A59C9
:401700000A4B1A600A4BDA687F218A43DA602178DA680A43DA602800FFF788FEFFF766FEF8BDC04608310000AB01002060020020E401002070B52C234343134AD3185D68EE
:40174000C9B2124C217099682378DBB29A00D3185A008A180E4B1A60FFF7C0FF2800FFF7FFFD2378DBB20B49DA00D31A98000B689C4660440860FFF7EFFE0122064B1A7096
:40178000064800F0D9FA70BD08310000AA0100205C02002060020020AC01002091220000F0B5574680B484B001902C224243524B9A1853689A461D000935012303E00020ED
:4017C00003AB985413005A1E002BF8D153461A8801239340013B59430800642100F0AAFE0600002300936FE02C23019A5343424AD3189F68009A9300944663445A00BF18B9
:40180000012304E04023AB54B9184B7213005A1E002BF7D1402400990198FFF78BFF0120FFF710FBFFF788FE344B00E0013B344AD26812060DD5002BF8D101330AE05300CC
:40184000DB5B9E4203D9A9180B78A3430B70130000E001235A1E002BF1D1640801330FE0A9180B782343DBB20B70B8184372002C05D10B78002B02D101330B704372130095
:401880005A1E002BECD1002CC5D1013307E003AB9B181878A95C884200D2197013005A1E002BF4D100990198FFF744FFFFF744FE124B00E0013B124AD268120601D5002B8A
:4018C000F8D1009B013300932C23019A53430A4AD3181B8B009A9A4286D3012305E003AB995C53469B18597213005A1E002BF6D104B004BC9246F0BD0831000000A60E0063
:40190000E401002070B504000D002C264643174BF618174BDB68DB0324D4736805229A7229002000FFF73CFF3000FFF7C9FB0028F6D129003000FFF711FC2000FFF7CEFE07
:40194000FFF724FE0B4B00E0013B094AD268120601D5002BF8D1002B06D029002000FFF761FB02E0112000E0102070BD08310000E401002000366E01F0B50024334B1C70CC
:401980000400002600230BE0E588954206D9AE4204D22E4E3371012737702E000A3401338B42F1D3294B1B78002B46D14AE0274FBB181B799E00F61874000519ED88AC46F1
:4019C0005600B61875007D1966466E81002B12D18D006D186C000A3C0419E6885500AD186C003C19268101339D00EB185D004519EB88A3811FE04D1EEDB2AB420BD10A3C00
:401A00000419E5885400A4186300104CE3181D81C4889C810FE00A3C0419E6885500AD186C000A4D2C19268101339D00EB185D004519EB88A381013200E00022034B1B7886
:401A40009A42B4D3014B1878F0BDC046B0010020F0B557464646C0B483B082460F000192984600252DE01B4B5B191C79002C07D16A0052195300174AD31800221A810AE026
:401A8000019B013B9C4206D16A0052195300114AD31800229A816E00721953000D4AD3189A891989501A5B89C9185118784300F0CBFD7C43444400197F30000A53469853F3
:401AC0000135044B18788542CDD303B00CBC90469A46F0BDB001002010B500F075F810BD10B500F01DF810BD10B5044A1368802109060B431360FFF7EFFF10BD000027401E
:401B000010B5064B1B78002B04D1FFF7E9FF0122024B1A70FFF7E8FF10BDC046BE010020154A164B1A600023154A13601549164A1160072215490A6015490A60154A1360AC
:401B40000121154A11601549154A1160154A13600421154A1160154A1360154A1360154A1360154A1360154A1360154A13601268144B1A807047C0460B00000200002740EE
:401B80004000274001000A00480027400003274004032740100327404400274007000080000227400402274050002740880E2740C80E2740480F2740080F2740C80F2740FF
:401BC000880F2740C001002005490B68F0229343603A13430B60034B1A88034B1A60704700070240C0010020880F274070B50500002402E000F084FB0134285D0028F9D120
:401C000070BDC0460004000C014B18607047C046480220400004000C014B18607047C046540220400004000C014B18607047C0464C02204070B504000D0000F0A2FAAC4002
:401C4000024B1C6000F0A1FA70BDC0460800204010B500F096FA064A116820230B43136000F093FA18212020FFF7E4FF10BDC04600002040014B18607047C0467802204006
:401C800010B50E4C8023DB042360236823600020FFF7B8FF236823600C22094B1A600120FFF7E8FF3122074B1A600748FFF7B2FFFA208000FFF7B6FF10BDC046400220404E
:401CC0006402204068022040409C000010B5064B1B78002B04D1FFF7D3FF0122024B1A70FFF7B6FF10BDC046C20100208023014AD05070470000002010B5040000F041FAD3
:401D0000044A1368C0218B43A4011C43146000F03CFA10BD10E400E080225202014B1A607047C04600E100E080225202014B1A607047C04680E100E010B50400FFF7F4FF46
:401D40002000FFF7D3FF0320FFF7D6FFFFF7E4FF10BDC0460C4B1B689B001C22134018330A4A1268920803210A40D34008490868084A02400A60084A944663441B78DBB2F5
:401D8000064A13607047C046080F03402800034000002240FFFFFFBF4DF3FF0F0C0F0340034B18688023DB05184000D001207047000022401F2318401E3B8340014A1360ED
:401DC0007047C04600E100E01F2318401E3B8340014A13607047C04680E100E01F2318401E3B8340014A13607047C04680E200E001BE704770B504000D001B2802D9002096
:401E0000FFF7F6FF1034A40080239B059C4664442068256070BDC04610B5040006E0084B586800F0A5F9074B9C46644480231B029C42F4D8024B9868604300F099F910BDED
:401E4000BC0000200080FFFF70B582B000F0E2F800284DD000F095F90500264B1A6892001C231A401832244B1B689B0803210B40DA400021214B1960214C2168214B0B40E6
:401E800021494A438021C9018C466244D20B013A5205520D1343A0225203134323601B4B1B680193302000F039FA194A13688021C9050B4313602668164B1E40002407E0DE
:401EC0000120FFF7A9FF1034A30533430C4A1360EE2CF5D90120FFF79FFFFF239B051E43074B1E60019A094B1A60280000F04DF902B070BD080F0340280003400C0F03409F
:401F00000800224000F800C040420F003000104000002240FFFF3FC0F0B583B0040018280BD01C2809D0202807D0242805D0282803D02C2801D0302849D100F022F9019065
:401F4000FFF72EFF002803D0FFF704FF012600E00026214A136807218B4313601F4BE3181B78DBB21E4A13601E4A13688B4313601D4803687F22934319001C4BE3181B78F5
:401F800013400B430360322000F0F2F8182C16D9114F3B680725AB431A0023001C3B9B082B4013433B60322000F0E2F83A68AA432300183B9B082C001C4014433C60012EA0
:401FC00001D1FFF741FF019800F0DFF802E00020FFF70EFF03B0F0BD080F03404DF3FF0F0C0F0340100F0340180F034034F3FF0F10B5034B1B7B584300F0BAF810BDC04654
:40200000BC000020024B1868800F80077047C0460C022240034B1B68002B01DA012000E00020704700002240014A024B1A6070476588EDAC3800034010B50400FFF7E2FF39
:40204000A0421AD0144A136803218B431360134B1B689B0F01D17C2001E086204000FFF7C7FF00F08EF80D4A13689B009B08A40FA4071C43146000F088F8074B1B680322B9
:402080009343064A1268920F01D1023200E001221343014A136010BD140222400C02224010B5040000F06DF8054B1C4005490B68054A134023430B600B6800F066F810BD81
:4020C0000404040010022240FBFBFBFF10B5244B1B685B0715D5234B1B685B070ED5224B5969042001401F4C22688A4322605A6982435A619B68002B00D098470420FFF725
:40210000CFFF174B1B685B0518D5164B1B685B0510D5154B59698022D2001140114802688A4302605969114A0A405A61DB68002B00D098478020C000FFF7B2FF084B1B6881
:402140005B030CD5074B1B685B0304D5064B1B69002B00D098478020C002FFF7A1FF10BD10022240D0000020C4010020FFFBFFFF0230800803D001300238FCD1C046C0468E
:402180007047EFF3108072B6704780F3108870470F4B1B782C2253430E4AD3185B680E4A11680A04120C188801238340013B9A4206D20A4B1A680A4B1B785B00D15205E0E8
:4021C000064A1168064A127852008B527047C046AB01002008310000D00029405C0200204832000070B5234C227823492C235A438A18506822785343CB181A7E013A1F4BEA
:402200001B78DBB29A421DD91C4C23780133DBB22370184D2B782C225343CB1899682378DBB29A00D3185A008A18154B1A60FFF797F82878C0B22178C9B2FFF7F9F9FFF779
:4022400003F916E000220D4B1A700E4AD1680E4B0B40D3600D4B1B78012B02D1FEF7CEFC07E0084BDA6880218A43DA601A8901321A8170BDAB01002008310000AA010020C5
:402280005C020020E4010020FFFFFEFFA901002010B583225200064B1A60FFF779FF054B1A8901321A81D968034A0A40DA6010BDF0002940E40100207FFFFEFF10B50C4B4C
:4022C0001B782C2253430B4A9C580B4B1A78D2B2D1008A1A9300E41883225200074B1A60FFF756FF2000FFF7B5F9FFF77BFF10BDAB01002008310000AA010020F000294076
:40230000044B1B681F221340082BF9D0024B18607047C046080227404002274070B50400FFF72FFF0500102C05D8104A136803218B43136016E0202C07D80C490B680322EC
:402340009343023A13430B600CE0302C07D807490B6803229343013A13430B6002E00020FFF746FD2800FFF710FF70BD30001040F7B5FA278368C58A0193038B867EBF00A8
:402380005E43C37E04007B43F618019B2800198800F0D0F881B2606800F0CCF8618A704300F0C8F80600208A3900704300F0C2F80649684300F0BEF80123002802D0400805
:4023C0005B00FAE7019A30001380FEBD00E1F50570B50400FA21438A807E1D04ED1A63688900584300F0A6F80100280000F0A2F8A36805001988E08A00F09CF880B26843CA
:40240000104900F097F8A38A0A21584300F092F800230D4A216810258A425B410222D31A62325343984203D9013D4008062DF9D14B236421584300F07DF8E4682080E8B2CA
:4024400070BDC046A0860100A761000010B50024A34200D00C880388101C9B009BB29A4200D2181C83B2221C9C4200D2021C93B20A805A08FF2A01D9FF2200E0D2B28A7053
:40248000CA70DB08FF2B00D9FF230B7110BD8B0813800F2393720023C90851809080D0801081D3727047937A30B594885B00041B9080DBB2002C01DB937202E00133937235
:4024C00064420F23957A1D4053889572A34203D9012B03D9013B00E0013353800F2D05D0002D03D053889D00AC4204D90023D0801081D3721DE0D488844201D9D08003E001
:402500001489844200D21081D07A092802D80130D0720EE01089D488001B80B2834204D989088B4203D9013B00E0013353805388138030BD002243088B4274D303098B4229
:402540005FD3030A8B4244D3030B8B4228D3030C8B420DD3FF22090212BA030C8B4202D31212090265D0030B8B4219D300E0090AC30B8B4201D3CB03C01A5241830B8B42DA
:4025800001D38B03C01A5241430B8B4201D34B03C01A5241030B8B4201D30B03C01A5241C30A8B4201D3CB02C01A5241830A8B4201D38B02C01A5241430A8B4201D34B026D
:4025C000C01A5241030A8B4201D30B02C01A5241CDD2C3098B4201D3CB01C01A524183098B4201D38B01C01A524143098B4201D34B01C01A524103098B4201D30B01C01AA2
:402600005241C3088B4201D3CB00C01A524183088B4201D38B00C01A524143088B4201D34B00C01A5241411A00D20146524110467047FFE701B5002000F0F0F802BDC0462E
:402640000029F7D076E7704703460B437FD4002243088B4274D303098B425FD3030A8B4244D3030B8B4228D3030C8B420DD3FF22090212BA030C8B4202D31212090265D050
:40268000030B8B4219D300E0090AC30B8B4201D3CB03C01A5241830B8B4201D38B03C01A5241430B8B4201D34B03C01A5241030B8B4201D30B03C01A5241C30A8B4201D34A
:4026C000CB02C01A5241830A8B4201D38B02C01A5241430A8B4201D34B02C01A5241030A8B4201D30B02C01A5241CDD2C3098B4201D3CB01C01A524183098B4201D38B01AA
:40270000C01A524143098B4201D34B01C01A524103098B4201D30B01C01A5241C3088B4201D3CB00C01A524183088B4201D38B00C01A524143088B4201D34B00C01A5241F4
:40274000411A00D201465241104670475DE0CA0F00D04942031000D34042534000229C4603098B422DD3030A8B4212D3FC22890112BA030A8B420CD3890192118B4208D33B
:40278000890192118B4204D389013AD0921100E08909C3098B4201D3CB01C01A524183098B4201D38B01C01A524143098B4201D34B01C01A524103098B4201D30B01C01A9A
:4027C0005241C3088B4201D3CB00C01A524183088B4201D38B00C01A5241D9D243088B4201D34B00C01A5241411A00D20146634652415B10104601D34042002B00D54942DD
:40280000704763465B1000D3404201B5002000F005F802BD0029F8D016E770477047C046014B18687047C046340100200E4B70B500251E000D4CE41AA410A54204D0AB0084
:40284000F35898470135F8E700F01AFD084B00251E00084CE41AA410A54204D0AB00F35898470135F8E770BD8C3200008C3200008C32000094320000002310B59A4203D00D
:40288000CC5CC4540133F9E710BD03008218934202D019700133FAE7704700000EB410B59DB002A9029008610B48822488604861012040421FABC881084804CBA400006879
:4028C00001938C8100F06EF80023029A13701DB010BC08BC03B01847FFFFFF7F34010020F0B58E6885B007000C00039201939E4243D890238A89DB001A423ED003250969B3
:40290000236801985B1A029363695D43EB0F5D19029B6D1001331B18AB4200D91D00530510D52900380000F037FB061E14D0029A2169FFF7A1FFA289194B134080221343CB
:40294000A38112E02A00380000F086FB061E0CD12169380000F0D4FA0C23402201203B60A38940421343A38117E0029B2661F61826606561019EED1AA560019BB34200D2F5
:402980001E0032000399206800F0A5FA0020A3689B1BA36023689E19266005B0F0BDC0467FFBFFFFF0B59FB0029005938B890F0016001B0610D50B69002B0DD1402100F05D
:4029C000EBFA38603861002804D10C23029A01381360D8E040237B61002306AD6B6120336B761033AB7634002378002B03D1A31B049312D003E0252BF9D00134F4E7A31B4D
:402A0000320039000298FFF76BFF431C00D1B4E06A69049B944663446B612378002B00D1ABE00122002352426A6002A95432521801342B60EB60AB601370AB65534E21786A
:402A40000522300000F03CFA002807D00123801B83402A68013413432B60EFE72B68DA0604D55322202102A8121811701A0704D553222B2102A81218117022782A2A03D0B2
:402A8000099B00200A210EE0059A111D12680591002A01DB099204E05242EA60022213432B6001340BE02278303A092A04D84B4301349B180120F6E7002800D0099323781E
:402AC0002E2B1ED163782A2B0AD1059B02341A1D1B680592002B01DA01235B42079310E000230A201A0001346B6021783039092904D84243013452180123F6E7002B00D074
:402B00000792234E21780322300000F0D9F9002806D04023801B83402A68013413432B60217806221B48661C297600F0C9F9002812D0194B002B06D10722059B0733934334
:402B40000833059314E005AB00933A00134B2900029800E000BF07E005AB00933A000F4B2900029800F08AF80390039B013304D06B69039A9B186B6135E7BB890B985B06D1
:402B800001D5012040421FB0F0BDC0464B320000513200005532000000000000E1280000F7B5170001938A680B6900900C00934200DA130022003B6043321278002A01D0B8
:402BC00001333B6023689B0602D53B6802333B60062523681D401ED0230043331B785A1E9341226892061CD53020E1184331087021005A1C45310978A2184332023311705C
:402C00000FE022000123193201990098089EB047431C0ED00135E3683A689B1A9D42F0DBDAE72200019943320098089DA847431C02D10120404220E006232068E1683A68F7
:402C400003400025042B03D18D1AEB43DB171D40A3682269934201DD9B1AED180027BD420AD0220001231A3201990098089EB047431CDED00137F2E70020FEBDF0B58BB088
:402C800006920A0043320793059004920A7E0C00109B6E2A00D1ABE011D8632A22D009D8002A00D1B5E0582A00D0C5E045310A70814A4FE0642A1DD0692A1BD0BCE0732A19
:402CC00000D1AAE009D86F2A29D0702A00D0B3E0202209680A43226037E0752A1FD0782A33D0A9E00E001A684236111D196013683370A4E021681A68080606D4490604D548
:402D0000111D19600023D55E02E0111D19601568002D3BDA2D23049A6D42137036E021681A68080606D4490604D51568111D1960ADB202E0111D196015685F4B227E039394
:402D400008276F2A1DD00A271BE022007821453211705A4A19680392081D226818600D68100602D4500600D5ADB2D30702D520231A4322601027002D03D1202322689A433E
:402D800022602300002243331A7002E00A274A4B03936368A360002B09DB0422216891432160002D05D1049E002B11D07BE0002D79D0049E28003900FFF742FC039B013E97
:402DC0005B5C280033703900FFF7B4FB051EF1D1082F09D12368DB0706D563682269934202DC3023013E3370049B9B1B23612BE009681A68080607D4490605D5111D196067
:402E00001368A28A1A8004E0111D1960136862691A600023049E236116E01A68111D1960166800216268300000F04AF8002801D0801B6060636803E026004236327001236D
:402E400023610023049A1370079B09AA00932100069B0598FFF7A4FE431C02D10120404227E02369320006990598079DA847431CF4D0236800259B070FD4099BE068984224
:402E800017DA180015E022000123193206990598079EB047431CE1D00135E368099A9B1A9D42F0DBE9E72600039B42361B7833708EE70BB0F0BDC0465C3200006D320000C6
:402EC000C9B28218904204D003788B4202D00130F8E70020704710B5884202D98B18984201D3002305E09B1A013A08D3995C8154FAE7934203D0CC5CC4540133F9E710BD14
:402F000070B50500002944D00C1F2368002B00DAE418280000F0D8F81E4A13681100002B02D16360146031E0A3420DD92268A018834203D118685B688218226063600C601D
:402F400024E0A24203D813005A68002AF9D11E689819A0420BD12168711858181960824214D110685268411819605A600EE0A04202D90C232B6009E021686018824203D187
:402F8000106852684118216062605C60280000F09CF870BDE0010020032370B5CD1C9D43083506000C2D01D20C2501E0002D01DBA94202D90C23336048E0300000F084F8E3
:402FC000234B1C681A002100002913D00B685B1B0DD40B2B02D90B60CC181EE08C4202D1636813601AE04B6863600C0016E00C004968E9E7174C2368002B03D1300000F085
:4030000051F820602900300000F04CF8431C18D00323C41C9C43A0420DD12560300000F054F8200007220B30231D9043C31A0ED05A42E2500BE0211A300000F033F8431C6D
:40304000EBD10C233000336000F03FF8002070BDE0010020DC010020F8B506000C001500002904D11100FFF797FF040018E0002A03D1FFF745FF2C0012E000F027F8854299
:403080000ED929003000FFF787FF071E07D021002A00FFF7F1FB21003000FFF731FF3C002000F8BD002370B5064C050008002360FDF7FEF8431C03D12368002B00D02B604B
:4030C00070BDC04664020020704770470B1F1A68101F002A04DA891804390B68D01804387047000000000000496E696369616E646F2E2E2E0D0A00002533640D0A00000098
:4031000020202020202000004C310000020200201802002000000000A00100200128000006000206640000000014000058010020800000000C00640028280A031E2005007B
:4031400004000000A0000000FFFF000000020240080204400002044004020440000000F0800000001C071500000602400806044000060440040604400F00000001000000A1
:403180000000000000060240080604400006044004060440F0000000020000000401030000060240080604400006044004060440000F000004000000080206000006024046
:4031C00008060440000604400406044000000F001000000010040C00000602400806044000060440040604400000F0002000000014050F009A0700005A07000064070000CF
:403200006E0700007E0700008807000092070000000000017C92000000000003F824010000004001E093040000004003C02709000000C001804F120000008001009F24006C
:4032400000008003003E4900004300232D302B2000686C4C00656667454647003031323334353637383941424344454600303132333435363738396162636465660000000E
:40328000F8B5C046F8BC08BC9E4670477D01000029030000F8B5C046F8BC08BC9E46704755010000B8320000B0000020880000003001000000000000000000006802002085
:4032C00020000004010000000000E02EC05D00001800000000366E01040404000000000000000000000000000000000000000000000000000000000000000000493200003A
:40330000000000000000000000000000000000000000000000000000000000000000000000000000000000000000000000000000000000000000000000000000D400002099
:40334000000000000000000000000000000000000000000000000000000000000000000000000000000000000000000000000000000000000000000000000000000000004D
:40338000000000000000000000000000000000000000000000000000000000000000000000000000000000000000000000000000000000000000000000000000000000000D
:4033C00000000000000000000000000000000000000000000000000000000000000000000000000000000000000000000000000000000000000000000000000000000000CD
:40340000000000000000000000000000000000000000000000000000000000000000000000000000000000000000000000000000000000000000000000000000000000008C
:020000040001F9
:0200000490303A
:0200000091016C
:0200000490402A
:4000000000000000000000000000000000000000000000000000000000000000000000000000000000000000000000000000000000000000000000000000000000000000C0
:0200000490501A
:0C0000000002257C11B50001258CA2B681
:0200000490600A
:0100000001FE
:00000001FF